:020000040800F2
:100000009806002001010008BB1E0008E91A00083C
:10001000B91E000869010008AD28000800000000B2
:1000200000000000000000000000000013010008B4
:10003000A701000800000000170100084521000882
:100040001B0100081B0100081B0100081B01000820
:100050001B0100081B010008A90100081B01000882
:100060001B0100081B0100081B0100081B01000800
:100070001B0100081B0100081B0100081B010008F0
:100080001B0100081B0100081B0100081B010008E0
:100090001B0100081B0100081B0100081B010008D0
:1000A0001B0100081B0100081B0100081B010008C0
:1000B000F9210008052200081B0100081B010008A7
:1000C0001B0100081B0100081B0100081B010008A0
:1000D0001B010008B5260008A12800081B01000824
:1000E0001B0100081B0100081B010008DFF80CD0F1
:1000F00000F028F800480047CD28000898060020A6
:100100000648804706480047FEE7FEE7FEE7FEE7B1
:10011000FEE7FEE7FEE7FEE7FEE7FEE7B1210008A7
:10012000ED000008202A04DB203A21FA02F0002129
:10013000704721FA02F3D040C2F1200291400843F7
:1001400019467047064C074D06E0E06840F0010391
:1001500094E8070098471034AC42F6D3FFF7CAFF83
:10016000882A0008A82A0008FEE770B54FF6FF723B
:1001700000234AF201050DE0C45C544064F3070219
:100180000024D607C2F34E0200D06A40641C082C3B
:10019000F7DB5B1C8B42EFDB110A104661F30700B3
:1001A00062F30F2070BDFEE7012000F095BA000059
:1001B0002DE9F05F002401F0D7FE274FDFF89C8087
:1001C000274DC1074FF400664FF480494FF4004AB1
:1001D00025D18107234822D54FEA000B01F0C4FE48
:1001E00080071CD5052C1AD29BF8020060B1641C54
:1001F000E4B23146384600F05EFB0221404600F092
:100200005AFB00208BF8020000224946284600F0E5
:1002100056FB01225146284600F051FBDEE7012241
:100220003146384600F04BFB00220221404600F0E8
:1002300046FB00224946284600F041FB0022514679
:10024000284600F03CFB01F08FFE800702D0002022
:10025000BDE8F09F0120FBE70008014000100140CD
:10026000000C01400F0000202DE9F05F00252E4614
:10027000DFF82481494FDFF828914FF4804A494C38
:100280004FF4004B19E000BF98F8020058B14FF44A
:10029000805138466D1C00F00EFB0221484600F0EC
:1002A0000AFB88F8026001225146204600F007FB55
:1002B00000225946204600F002FB01F055FE80075F
:1002C00001D40A2DE0D301221103344800F0F7FADB
:1002D00000220221324800F0F2FA00225146204664
:1002E00000F0EDFA0022D9465946204600F0E7FA20
:1002F00001F03AFE2C4F81074FF4006B2AD5C0075E
:1003000028D12A4801F008F91AE000BF98F8020045
:1003100050B1594621486D1C00F0CDFA0221204809
:1003200000F0C9FA88F80260387848B100225146D6
:10033000204600F0C4FA01224946204600F0BFFAE8
:1003400001F012FEC00705D101F00EFE800701D5B5
:10035000142DDBD301225946104800F0B0FA0022D8
:1003600002210F4800F0ABFA00225146204600F06F
:10037000A6FA00224946204600F0A1FA0B4801F0F7
:10038000D7F83E7001F0F0FDC10702D00120BDE8B2
:10039000F09F0020FBE700000F0000200008014054
:1003A00000100140000C01400B00002084010020DF
:1003B00006490020C8610648016941F00401016155
:1003C000016941F04001016170470000A800002070
:1003D00000200240064A0021D16106490A6942F024
:1003E00002020A614861086940F0400008617047F4
:1003F000A800002000200240044B0022DA61044AD9
:10040000136943F00103136101807047A8000020C5
:10041000002002400E49C868C2060E4803D5C269D2
:1004200042F00202C261CA68520703D5C26942F0B3
:100430000102C261CA69D20707D0C26942F0040250
:10044000C261C86920F00100C8611420C86070470B
:1004500000200240A800002070B5054600F034FAE4
:100460000646114C09E0681C07D025B100F02CFAB3
:10047000801BA84201D9032070BDE068C007F2D1FB
:10048000E068800601D52020E060E068C00605D461
:10049000E069C00702D1E068400703D5FFF7BAFF63
:1004A000012070BD002070BD0020024010B5002367
:1004B00004E000BF30F81340CC545B1C9342F9D3E6
:1004C000012010BD2DE9F0474FF0000986B0174616
:1004D0008A4680464C464E464D46CDF8109000F078
:1004E000E3F850BB404600F02EF802900120CDE921
:1004F0000090039004A9684600F038F800240AE050
:100500001AF8042008EB44011644D30F012000F030
:100510008BF8641CA4B2BC42F2D300F07BF800203C
:1005200006E000BF38F81010401CC9B20D4480B27C
:10053000B842F7D3AE4201D1012400E0002406B056
:100540002046BDE8F087A0F10060800A4FF000610E
:1005500001EB8020704731B500F0B6F9044600F099
:10056000B3F90099001B8842F9D338BD2DE9F04753
:10057000054626480F460126017E01290FD001219C
:10058000814601762868DFF888804CF250340228D2
:1005900008D0A2462046FFF75FFFA8B131E0022055
:1005A000BDE8F0872046FFF757FF08BB0120FFF7A3
:1005B000FFFE2046FFF750FFD8F81010064621F046
:1005C0000401C8F810101CE04FF0FF303860AC6830
:1005D00011E02046FFF7FEFE5046FFF73DFFD8F83A
:1005E0001010060021F00201C8F8101001D03C6084
:1005F00007E004F58064D5E9020100EB8120A04208
:10060000E7D8002189F818103046C9E7A800002073
:10061000002002400348016941F08001016100208F
:1006200070470000002002402DE9F05F07461C489B
:1006300088460024017E15461E46012909D0012165
:10064000814601764CF2503A5046FFF705FF18B14B
:1006500022E00220BDE8F09F012F02D0022F00D03F
:100660000427D346DFF83CA0220128463146FFF795
:1006700059FD81B208EB4400FFF7BEFE5846FFF774
:10068000EBFEDAF8102022F00102CAF8102018B9A7
:10069000641CE4B2BC42E7D3002289F81820D9E7F1
:1006A000A80000200020024005480169090605D580
:1006B00004494160044941600020704701207047AF
:1006C0000020024023016745AB89EFCD014901209D
:1006D0000870704708000020044910B50A680242FB
:1006E00002D00860FFF7F2FF10BD000014040140C3
:1006F0002DE9F84FDFF890A100220AF1040B14460F
:1007000001274FF00F090BF1040E00BF0B6807FA29
:1007100004F52B40AB4274D1DFF870C14E68A6EBF4
:100720000C0866452BD00DDC032E34D005DC36B327
:10073000012E19D0022E2FD11BE0112E16D0122E11
:100740002AD119E0B8F5881F19D006DCB8F5803F2A
:1007500015D0B8F5801F1FD111E0B8F5001F0ED0DD
:10076000B8F5041F18D10AE0CA6815E0CA68121D5E
:1007700012E0CA6808320FE0CA680C320CE08A68DE
:100780002AB1012A4FF0080203D0456104E0042297
:1007900002E0056100E00022FF2B01D8064601E0DF
:1007A00000F104064FEA840501D9A5F12005D6F829
:1007B00000C009FA05F82CEA080C02FA05F54CEA23
:1007C000050CC6F800C04D68ED0057D5304DAE6938
:1007D00046F00106AE61AD6924F0030605F001059F
:1007E00000952C4D06EB050CDCF80850A6074FEAE7
:1007F000167809FA08F6B543274EB04202D1002612
:1008000010E03BE0254EB04201D101260AE0244E23
:10081000B04201D1022605E0224EB04201D10326AA
:1008200000E0042606FA08F62E43CCF808604D686E
:10083000DAF80060ED03554601D51E4300E09E4303
:100840002E604D68DBF80060AD035D4601D51E43A8
:1008500000E09E432E604D68DEF80060ED027546B4
:1008600001D51E4300E09E432E604D68AD020E4D43
:100870002E6801D51E4300E09E432E60641C102CA0
:10088000FFF444AFBDE8F88F0004014000001110F0
:10089000001002400000014000080140000C01402F
:1008A00000100140001401400C0401408068084021
:1008B00000D001207047C2684A40C26070470AB148
:1008C000016170470904FBE70148006870470000B8
:1008D0000000002002480168491C016070470000C8
:1008E00000000020074810B5016841F010010160C8
:1008F000032000F07DF8002000F006F800F016F864
:10090000002010BD0020024010B5044600F0C6F9DA
:100910004FF47A71B0FBF1F000F070FD0022214637
:10092000501E00F045F8002010BD0000184808B522
:10093000816941F001018161806900F0010000904E
:10094000062000F055F8002211466FF00B0000F071
:100950002FF8002211466FF00A0000F029F800225B
:1009600011466FF0090000F023F800221146101F15
:1009700000F01EF800221146501E00F019F805483C
:10098000416821F0E06141F00071416008BD000064
:10099000001002400000014000F01F0201219140C0
:1009A0004009800000F1E020C0F80011704700000D
:1009B000F0B40E4B1B680C46C3F30223C3F10705CA
:1009C000042D00D90425191D072901D2002300E0B8
:1009D000DB1E012606FA05F1491E214099409E4082
:1009E000761E16403143F0BC01F068BA0CED00E011
:1009F000064900F0070208684FF6FF03184040EA76
:100A00000220034A10430860704700000CED00E02C
:100A10000000FA052DE9F047DFF8789205460E460A
:100A2000D9F80000022300F0070701204104420624
:100A3000994C41F28838B74271D2D9F800C02CF0F5
:100A4000070C4CEA060CC9F800C0D9F8007007F092
:100A50000707B7426FD12E78B60705D56668AF682D
:100A600026F0F0063E4366602E78F60756D06E6894
:100A7000012E0BD0022E1ED093FAA3F1B1FA81F110
:100A800041F02001490924D0216823E091FAA1F224
:100A9000B2FA82F242F02002520901D0226800E04C
:100AA000626A91FAA1F1B1FA81F101F01F01884067
:100AB000024240D017E092FAA2F1B1FA81F141F07E
:100AC0002001490901D0216800E0616A92FAA2F28E
:100AD00002E0616A93FAA3F2B2FA82F202F01F0214
:100AE0009040014227D0606820F0030030436060EE
:100AF000FFF7EAFE06466868012809D00228474643
:100B000013D01EE0FFF7E0FE801BB84201D992E04F
:100B100047466068C0F381000128F3D1A1E015E0E9
:100B2000FFF7D2FE801BB84273D86068C0F3810023
:100B30000228F5D195E092E0FFF7C6FE801BB8428F
:100B400079D8606810F00C0FF6D18AE02F78BF07D3
:100B500007D56768D5F808C027F0F00747EA0C0703
:100B600067602F78FF076DD06F68012F0BD0022FC1
:100B70001ED093FAA3F1B1FA81F141F020014909A5
:100B800024D0216823E091FAA1F2B2FA82F242F075
:100B90002002520901D0226800E0626A91FAA1F1B4
:100BA000B1FA81F101F01F018840024257D017E0ED
:100BB00092FAA2F1B1FA81F141F02001490901D084
:100BC000216800E0616A92FAA2F202E0616A93FA97
:100BD000A3F2B2FA82F202F01F02904001423ED02C
:100BE000606820F0030038436060FFF76DFE074641
:100BF0006868012807D0022811D01FE0FFF764FEC3
:100C0000C11B414517D86068C0F381000128F5D1A8
:100C100018E010E0FFF758FEC11B41450BD8606893
:100C2000C0F381000228F5D10CE000BFFFF74CFEB5
:100C3000C11B414502D90320BDE8F087606810F070
:100C40000C0FF3D1D9F8001021F007013143C9F896
:100C50000010D9F8000000F00700B04201D00120D8
:100C6000EAE72878400705D56068E96820F4E06085
:100C7000084360602878000706D56068296920F479
:100C8000605040EAC10060600020FFF73DFE002098
:100C9000D2E70000002002400010024000B500F042
:100CA00043F808494968F02292FAA2F201F0F001F3
:100CB000B2FA82F2D140044A515CC840034908604C
:100CC00000BD000000100240682A00080400002057
:100CD00000B5FFF7E3FF074949684FF4E06292FA75
:100CE000A2F201F4E061B2FA82F2D140024A515C10
:100CF000C84000BD00100240682A000800B5FFF798
:100D0000CDFF074949684FF4605292FAA2F201F40C
:100D10006051B2FA82F2D140024A515CC84000BD33
:100D200000100240682A000810B519A385B00FCB47
:100D30008DE80F001AA01B4B006804905A681A48EF
:100D400002F00C0104291DD008291BD14FF47014A6
:100D500094FAA4F402F47011B4FA84F4E140D203DA
:100D60001DF8011010D55A684FF4003393FAA3F31D
:100D700002F40032B3FA83F3DA4004AB9A5CB0FBBE
:100D8000F2F0484305B010BD08484843FAE70000B8
:100D900002030405060708090A0B0C0D0E0F1010BC
:100DA000010200000010024000127A0000093D001C
:100DB0002DE9F84F05460078FA4EC0074FF00104C0
:100DC00025D070686704C0F38100012807D07068DF
:100DD000C0F3810002281BD17068C00318D597FAB0
:100DE000A7F0B0FA80F040F02000400901D0306850
:100DF00000E0706A97FAA7F1B1FA81F101F01F01E2
:100E000004FA01F1084202D06868002876D081E037
:100E1000306820F480303060306820F4802030600A
:100E2000FFF752FD804605E0FFF74EFDA0EB0800FE
:100E300064287CD897FAA7F0B0FA80F040F0200040
:100E4000400901D0306800E0706A97FAA7F1B1FA62
:100E500081F101F01F0104FA01F10842E4D1686850
:100E6000B0F5803F0BD010B1B0F5A02F11D0306895
:100E700020F480303060306820F4802002E0306858
:100E800040F480303060686820B3FFF71DFD804675
:100E90000AE0306840F480203060F0E7FFF714FD8E
:100EA000A0EB08006428C4D897FAA7F0B0FA80F045
:100EB00040F02000400901D0306800E0706A97FAE5
:100EC000A7F1B1FA81F101F01F0104FA01F1084222
:100ED000E4D01FE0FFF7F8FC804605E0FFF7F4FCE4
:100EE000A0EB08006428A4D897FAA7F0B0FA80F025
:100EF00040F02000400902D0306801E0B7E0706A9D
:100F000097FAA7F1B1FA81F101F01F0104FA01F19A
:100F10000842E3D12878DFF8908280074FF000097B
:100F20004FF002075AD5706810F00C0F00E07AE11C
:100F30004FF0F80B07D07068C0F3810002281BD176
:100F40007068C00318D497FAA7F0B0FA80F040F0A8
:100F50002000400901D0306800E0706A97FAA7F1DC
:100F6000B1FA81F101F01F0104FA01F108422AD01F
:100F7000286901287BD126E0286980B394FAA4F07F
:100F8000B0FA80F048F82040FFF79EFC824605E06A
:100F9000FFF79AFCA0EB0A00022884D897FAA7F082
:100FA000B0FA80F040F02000400901D0306800E045
:100FB000706A97FAA7F1B1FA81F101F01F0104FA02
:100FC00001F10842E4D030689BFAABF26969B2FAE9
:100FD00082F220F0F80091400843306025E0FFE7FE
:100FE00094FAA4F1B1FA81F148F82190FFF76CFC72
:100FF000824605E0FFF768FCA0EB0A000228CCD887
:1010000097FAA7F0B0FA80F040F02000400901D034
:10101000306800E0706A97FAA7F1B1FA81F101F047
:101020001F0104FA01F10842E4D1287800076ED5C7
:10103000A869B8B394FAA4F0B0FA80F008EB800085
:10104000C0F88044FFF740FC824605E0FFF73CFC17
:10105000A0EB0A000228A0D897FAA7F0B0FA80F017
:1010600040F06000B4EB501F02D130680CE096E114
:1010700097FAA7F0B0FA80F040F06000B7EB501F8D
:1010800001D1306A00E0706A97FAA7F1B1FA81F1F4
:1010900001F01F0104FA01F21042D7D00120FFF73E
:1010A0005AFA34E0FFE794FAA4F1B1FA81F108EBBF
:1010B0008101C1F88094FFF707FC824606E000BF7B
:1010C000FFF702FCA0EB0A00022898D897FAA7F0D5
:1010D000B0FA80F040F06000B4EB501F01D13068EE
:1010E0000BE097FAA7F0B0FA80F040F06000B7EBA1
:1010F000501F01D1306A00E0706A97FAA7F1B1FA87
:1011000081F101F01F0104FA01F21042D8D12878D0
:10111000400770D5F06940F08050F061F069DFF869
:101120008CB000F080500090DBF8001041F480712A
:10113000CBF80010FFF7C8FB824605E0FFF7C4FBC1
:10114000A0EB0A0064286ED8DBF80000C005F5D5D6
:10115000306A20F001003062306A20F00400306212
:10116000FFF7B2FB834641F2883A05E0FFF7ACFB9C
:10117000A0EB0B01514556D897FAA7F0B0FA80F0D2
:1011800040F04000B4EB501F01D1306811E097FAF5
:10119000A7F0B0FA80F040F04000B7EB501F07D145
:1011A000306A06E000100240000042420070004039
:1011B000706A97FAA7F1B1FA81F101F01F0104FA00
:1011C00001F10842D2D1E86801280AD008B1052807
:1011D00012D0306A20F001003062306A20F0040042
:1011E00002E0306A40F001003062E86898B3FFF72F
:1011F0006BFB83460CE05AE0306A40F0040030623A
:10120000EFE700BFFFF760FBA0EB0B0151450AD8E9
:1012100097FAA7F0B0FA80F040F04000B4EB501F0E
:1012200002D130680CE09DE097FAA7F0B0FA80F0A8
:1012300040F04000B7EB501F01D1306A00E0706A07
:1012400097FAA7F1B1FA81F101F01F0204FA02F155
:101250000842D7D02BE0FFE7FFF736FB834605E0D7
:10126000FFF732FBA0EB0B0151457BD897FAA7F0B3
:10127000B0FA80F040F04000B4EB501F01D130686C
:101280000BE097FAA7F0B0FA80F040F04000B7EB1F
:10129000501F01D1306A00E0706A97FAA7F1B1FAE5
:1012A00081F101F01F0204FA02F10842D8D1E86985
:1012B00080B37168C1F38101022970D04FF0807151
:1012C0004F000228484609D091FAA1F1B1FA81F104
:1012D00048F82100FFF7F8FA054669E0894691FAD7
:1012E000A1F1B1FA81F1C24648F82100FFF7ECFA0A
:1012F000804605E0FFF7E8FAA0EB0800022854D882
:1013000097FAA7F0B0FA80F040F02000400902D030
:10131000306801E061E0706A97FAA7F1B1FA81F1F3
:1013200001F01F0104FA01F10842E3D1286AB0F587
:10133000803F05D17068A96820F4003008437060D0
:10134000D5E908010843716821F4741108437060FD
:1013500099FAA9F0B0FA80F04AF82040FFF7B4FA01
:10136000054606E021E000BFFFF7AEFA401B022869
:101370001BD897FAA7F0B0FA80F040F0200040099F
:1013800001D0306800E0706A97FAA7F1B1FA81F1F4
:1013900001F01F0104FA01F10842E5D01DE01EE052
:1013A000FFF792FA401B022802D90320BDE8F88F0C
:1013B00097FAA7F0B0FA80F040F02000400901D081
:1013C000306800E0706A97FAA7F1B1FA81F101F094
:1013D0001F0104FA01F10842E2D10020E6E70120F2
:1013E000E4E74FF0E0210428086903D020F004006E
:1013F0000861704740F00400FAE7704710B5401EDE
:10140000B0F1807F01D3012010BD4FF0E024606176
:101410000F21601700F052FD0020A061072020611D
:10142000002010BD10B5FFF7E8FF10BD70477047F2
:1014300030B590F83820012A20D0012280F83820D9
:10144000022380F8393003685C6824F070045C6023
:1014500003685C680D682C435C6003689C6824F03A
:1014600080049C6003689C6849680C439C6080F819
:101470003920002180F83810084630BD022030BDE8
:1014800010B5040003D094F8390010B107E0012032
:1014900010BD002084F83800204600F00DF802202E
:1014A00084F83900211D206800F0B2FE012084F884
:1014B0003900002010BD000008B501681448B1F1E2
:1014C000804F14D0134A914220D1C16941F00201EA
:1014D000C161C069012200F00200009011461D2088
:1014E000FFF766FA1D20BDE80840FFF755BAC1694D
:1014F00041F00101C161C069012200F001000090CA
:1015000011461C20FFF754FA1C20ECE708BD000030
:1015100000100240000400400168CA6842F0010265
:10152000CA600068016841F0010101600020704755
:101530000168CA6822F00102CA600068016A41F2CB
:101540001112114207D1016A9210114203D10168B0
:1015500021F0010101600020704770B5044690F849
:101560003800012817D0012584F83850022084F86B
:1015700039002068826822F0770222F47F4282607C
:101580000868502837D00DDC202859D005DC88B3F6
:10159000102841D151E0022070BD302853D040289E
:1015A0003AD13FE060282ED070280BD0B0F5805F94
:1015B00003D0B0F5005F2FD110E02068816821F0E2
:1015C000070115E0CB68D1E90121206800F052FE47
:1015D0002168886840F0770088601DE0CB68D1E919
:1015E0000121206800F046FE2068816841F48041B6
:1015F000816011E01EE0CA684968206800F04CFE76
:101600005021206806E0CA684968206800F055FE4D
:101610006021206800F038FE84F83950002084F8FA
:10162000380070BDCA684968206800F035FE402166
:101630002068EFE700212068ECE710212068E9E747
:1016400020212068E6E730212068E3E7704770B585
:101650000446006801694FF00005C943890715D4A5
:10166000C168C943890711D4E91E016101202076B0
:10167000206880698007204602D0FFF7E7FF04E07A
:1016800000F098F8204600F096F825762068016969
:10169000C943490717D4C168C943490713D46FF038
:1016A00004010161022020762068806910F4407FE7
:1016B000204602D0FFF7CAFF04E000F07BF8204686
:1016C00000F079F8257620680169C943090716D426
:1016D000C168C943090712D46FF0080101610420F1
:1016E00020762068C0698007204602D0FFF7AEFF51
:1016F00004E000F05FF8204600F05DF825762068F1
:101700000169C943C90617D4C168C943C90613D4BE
:101710006FF010010161082020762068C06910F484
:10172000407F204602D0FFF791FF04E000F042F82E
:10173000204600F040F8257620680169C943C907B2
:1017400008D1C168C943C90704D1891E0161204677
:1017500000F032F820680169C943090609D4C1685C
:10176000C943090605D46FF0800101612046FFF7E7
:101770005DFE20680169C943490609D4C168C943AF
:10178000490605D46FF040010161204600F02AF8B7
:1017900020680169C94389060BD4C168C943890619
:1017A00007D46FF0200101612046BDE87040FFF7CB
:1017B0003EBE70BD70477047026801200649B2F115
:1017C000804F04D0054B9A4200D1C8707047044A3C
:1017D00048701070887070470800002000040040B6
:1017E000110000207047704738B504460068016852
:1017F000C26811F0010F02F4807204D01AB1E16BDB
:1018000041F00101E1630168C1F34002416901F067
:10181000010122B119B1E26B42F00402E2630268F5
:10182000C2F3800222B119B1E26B42F00202E2631C
:101830000268C2F3C00222B119B1E16B41F00801A4
:10184000E1630168C068C1F3401100F0200019B1E4
:1018500010B1204600F044FD20680168C068C1F363
:10186000C01100F0800019B110B1204600F0FCFD5D
:1018700021680868CA68C0F3801002F040020125A0
:1018800070B16AB1CA68204622F04002CA6094F87A
:101890003910322911D080F8395000BF00F01EF9FC
:1018A000E06B002808D0206801684068009084F848
:1018B00039502046FFF797FF38BD222180F83910B4
:1018C000ECE770B5040004D094F83900002510B19D
:1018D00006E0012070BD84F83850204600F020F862
:1018E000022084F839002068C16821F40051C160E9
:1018F000204600F049FD2068016921F49041016112
:101900002068416921F02A0141612068C16841F4E1
:101910000051C160E563012084F83900002070BDEA
:1019200070B5274E03680024264902200322264D65
:1019300086B0B3421ED18B6943F480438B618969C1
:10194000039201F4804104910102CDE9001069463F
:101950002846FEF7CDFE2815CDE900046946284645
:101960000294FEF7C5FE012211462520FFF720F85C
:10197000252020E0154EB3421FD1CB6943F400333C
:10198000CB61C969039201F4003104910421CDE9CE
:10199000001069462846FEF7ABFE0820CDE900049A
:1019A000694628460294FEF7A3FE0122114626202E
:1019B000FEF7FEFF2620FEF7EFFF06B070BD000029
:1019C000003801400010024000080140004400407F
:1019D00090F83930012B01D0122B2CD139B332B30E
:1019E00090F83830012B26D0012380F838308162FE
:1019F0008285C2850021C16390F83920122A18D04F
:101A00005FF0220280F8392080F838100168CA6837
:101A100042F48072CA6001684A6942F001024A6178
:101A20000068C16841F02001C160002070470120BA
:101A300070473222E6E702207047000000680A4B38
:101A400001210A4A984204D1117114220849094817
:101A500006E0094B984205D1517114220749084804
:101A6000FFF7B6BF704700000038014008000020B3
:101A70002A000020C8000020004400403E00002052
:101A80000801002090F83930012B01D0222B22D1FF
:101A9000E9B1E2B190F83830012B1CD0012380F875
:101AA000383001628284C2840021C16390F83920F9
:101AB000222A0ED05FF0120280F8392080F8381008
:101AC0000068C16841F08001C160002070470120BA
:101AD00070473222F0E702207047000001490120E0
:101AE0008871704708000020FEE700002DE9F041F2
:101AF0000546881C1431DFF88080C6B2CFB20024BE
:101B0000012202214046FEF7DAFEC820FEF723FD3F
:101B1000002202214046FEF7D2FE184881683B1998
:101B20000A5DEB5C9A421AD1641CE4B2082CF6D32D
:101B30004268002174182C44535CA478A34202D05C
:101B40000120BDE8F081491CC9B20629F2D3A95D84
:101B5000412906D0A91940784978884201D002204D
:101B6000EFE7074901200024487000F0FDF9C007A5
:101B700000D101242046E4E700100140C00100200C
:101B80000F0000202DE9F0410546881C1431DFF8D4
:101B90007880C6B2CFB20024012202214046FEF76F
:101BA0008EFEC820FEF7D7FC002202214046FEF739
:101BB00086FE164881683B190A5DEB5C9A4202D0AA
:101BC0000220BDE8F081641CE4B2082CF3D3426823
:101BD000002174182C44535CA478A34201D0012046
:101BE000EFE7491CC9B20629F3D3A95D412906D004
:101BF000A91940784978884201D00320E1E70449D7
:101C0000012008700020DCE700100140C001002026
:101C10000F0000207CB51C49D1E90001CDE900018D
:101C200000F0A2F9194C012211032046FEF747FEED
:101C30000122D1022046FEF742FE154C0020154D30
:101C400020700120607010480622801DC4E90150F8
:101C500069461148FEF72AFC002069460B180A5C09
:101C60005B789A4202D152B1FF2A08D000200A5C68
:101C70002A54401C80B20628F9D365607CBD401C04
:101C800080B20528EAD37CBD782A0008000801400C
:101C9000C001002012000020005000082DE9F0478C
:101CA000354886B0816941F020018161816901F088
:101CB00020010491816941F010018161816901F085
:101CC00010010491816941F004018161816901F091
:101CD00004010491816941F0080181618069DFF8A4
:101CE0009C8000F008000490002202214046FEF78C
:101CF000E6FD012230214046FEF7E1FDDFF880904D
:101D00004FF44046002231464846FEF7D8FDDFF842
:101D100074A0F710002239465046FEF7D0FD32205D
:101D20000124CDE900040325694603954046FEF7EA
:101D3000DFFC15486946CDE9004048460294FEF7AD
:101D4000D7FCCDE90064694648460395FEF7D0FC10
:101D50004FF4607000900020019002906946404668
:101D6000FEF7C6FCCDE90074694650460395FEF7C0
:101D7000BFFC06B0BDE8F087001002400010014033
:101D8000000C0140000801400000211010B50122A4
:101D900000210620FEF70CFEBDE810400620FEF7ED
:101DA000FBBD000010B50F4886B04FF080410160C8
:101DB00048F69F410024C0E9011440F2CF71C0E908
:101DC0000314FFF75DFB4FF480500090694605480F
:101DD000FFF7C3FB049404A902480594FFF728FB0E
:101DE00006B010BD4801002010B5104886B00E495D
:101DF000016048F69F410024C0E9011444F61F61C8
:101E0000C0E90314FFF73CFB4FF480500090694693
:101E10000648FFF7A2FB049404A904480594FFF7C1
:101E200007FB06B010BD0000000400408401002044
:101E30000848074901604FF4E131416000218160A9
:101E40000C22C160C0E904128161C161FFF739BD94
:101E500000380140C80000200848074901604FF4DD
:101E600016514160002181600C22C160C0E904125A
:101E70008161C161FFF725BD0044004008010020D9
:101E800010B500F071F80B4CC00701D0002200E043
:101E9000012220212046FEF712FD00F065F88007A0
:101EA00001D5002200E0012210212046FEF707FDA7
:101EB000012010BD00100140FEE770470907090E20
:101EC000002806DA00F00F0000F1E02080F8141D71
:101ED000704700F1E02080F8001470472DE9F041D0
:101EE0000546881C1431DFF87080C6B2CFB20024DA
:101EF000012202214046FEF7E2FCC820FEF72BFB40
:101F0000002202214046FEF7DAFC144881683B19A2
:101F10000A5DEB5C9A4202D00320BDE8F081641CAC
:101F2000E4B2082CF3D3002172182A444368927853
:101F30005A54491CC9B20629F6D3A95D0170A919E2
:101F400006224978417041680548FEF7BBFA01282E
:101F5000E3D00020E1E7000000100140C0010020B4
:101F600000500008AFF3008070B5104D00244FF40E
:101F700080712846FEF79AFC012800D102244FF414
:101F800000712846FEF792FC012801D144F00804B4
:101F900080212846FEF78AFC012804D024F00100A5
:101FA00040F0B00070BD44F00100F9E700100140BE
:101FB00030B5024613480025A0F1120401782378B9
:101FC0009142C3F164000BD1132819DB14220E498E
:101FD0000C4800F0A5F8207813302070012502E0AD
:101FE000802902D0AA25284630BD132808DB1422F8
:101FF0000549044800F094F8207813302070F2E787
:10200000FF25F0E72A000020CC01002030B5154C58
:1020100000256079401CC0B2FFF7CAFF012805D037
:1020200040B1FF281CD00325284630BD6079401CF4
:102030006071F9E760790125401CC0B26071A27837
:102040000021062A00D3A17000EB400202EB00122F
:10205000044BA0789B1D1A54401CA0706171E3E7EB
:102060000225E1E71800002030B50246134800259C
:10207000A0F12604017863789142C3F164000BD18A
:10208000132819DB14220E490C4800F049F8607837
:1020900013306070012502E0802902D0AA2528466D
:1020A00030BD132808DB14220549044800F038F835
:1020B000607813306070F2E7FF25F0E73E00002003
:1020C0003002002030B5154C00252079401CC0B2EC
:1020D000FFF7CAFF012805D040B1FF281CD0032517
:1020E000284630BD2079401C2071F9E72079012570
:1020F000401CC0B22071E2780021062A00D3E170B2
:1021000000EB400202EB0012044BE0780C331A544F
:10211000401CE0702171E3E70225E1E71800002090
:1021200070B505780024802D0AD8521E05E00519E7
:102130001E196D78641C8D55E4B29442F7DBD3B25E
:10214000184670BD10B5FEF7C5FBBDE81040FFF79F
:1021500069B930B58FB00120009000040024CDE9AA
:1021600001040225CDE907504FF4E01009906846BC
:10217000FEF71EFE0F20CDE90A056802CDE90C40EE
:102180000E9002210AA8FEF745FCFEF787FD4FF4EA
:102190007A71B0FBF1F0FFF731F90420FFF721F974
:1021A00000221146501EFEF703FC0FB030BD0000A8
:1021B0000D48016841F00101016041680B4A11407E
:1021C000416001680A4A11400160016821F48021E0
:1021D0000160416821F4FE0141604FF41F018160FC
:1021E0000449C00308607047001002400000FFF877
:1021F000FFFFF6FE08ED00E00148FFF728BA0000F7
:10220000480100200148FFF722BA000084010020A5
:10221000F0B50268144B154C154D4FF080479842AD
:1022200005D0B84203D0A04201D0A84203D122F089
:1022300070064A683243984205D0B84203D0A042A3
:1022400001D0A84203D122F44074CA68224302603C
:102250008A68C2620A688262984201D10969016390
:1022600001214161F0BD0000002C0140000400404C
:102270000008004010B5846842EA032224F47F4439
:102280000A432243826010BD826822F070020A4332
:1022900042F007018160704710B5036A046A24F0B8
:1022A00001040462846924F0F00444EA021423F077
:1022B0000A020A438461026210BD10B5036A23F06A
:1022C000100303628369046A23F4704343EA023211
:1022D00024F0A00343EA01118261016210BD0000F5
:1022E00010B590F83910222903D0322901D00220EC
:1022F00010BD8168B1F5805F11D0016900290168C6
:102300001FD0496801F07F03816A4A1C82620B700A
:10231000C18D491E0904090CC18518D030E002693D
:10232000816A002A0268526805D0D2B20A80816AA6
:10233000491C8162ECE7C2F308020A80816A891CA9
:10234000F7E74A68816A4B1C83620A70E0E701681C
:10235000CA6822F02002CA6090F83910322911D0E0
:102360000168CA6822F48072CA6001684A6922F072
:1023700001024A615FF0010180F83910FFF75EFB4E
:10238000002010BD1221F7E72DE9F0410446006856
:102390000169E26821F44051114301612169A0689B
:1023A0000843616908432168CA6841F20C639A4393
:1023B0000243CA6020684169A26921F44071114357
:1023C00041612849206864254FF03208884218D1BD
:1023D000FEF794FC00EBC00101EB0010616889007E
:1023E000B0FBF1F0B0FBF5F6FEF788FC00EBC001A6
:1023F00001EB001061688900B0FBF1F7FEF77EFC8D
:1024000017E0FEF765FC00EBC00101EB001061680E
:102410008900B0FBF1F0B0FBF5F6FEF759FC00EBDC
:10242000C00101EB001061688900B0FBF1F7FEF715
:102430004FFC00EBC00101EB001061688900B0FBAC
:10244000F1F0B0FBF5F06FF01801484307EB8001A5
:1024500008EB0110B0FBF5F0216866F31F108860EF
:10246000BDE8F0810038014090F83910122903D0FE
:10247000322901D0022070478168B1F5805F016A7E
:102480000BD04A1C0262026809785160C18C491E57
:102490000904090CC1840ED017E009880268C1F351
:1024A0000801516001690029016A02D0491C0162DA
:1024B000ECE7891CFBE70168CA6822F08002CA6069
:1024C0000068C16841F04001C16000207047000011
:1024D00070B50024054622462046124B04E09E5C5F
:1024E000521C3044C0B2D2B28A42F8D31A78801A51
:1024F000C2B25818012910F8010C09D10949891FE5
:102500000978884204D02846FDF72FFE022404E013
:102510002A4401461046FDF728FE00B90124204652
:1025200070BD00001E00002010B543185B78132B0F
:102530001AD01E2B52D0422B02D0442B5FD128E060
:10254000435C7E2B0DD002203F4900EB400001EBA5
:102550004004214606223D48FFF794FA0228F8D0AD
:102560004DE0FFF70FFBEFE7435C7E2B0ED0022020
:10257000354900EB4000183101EB400421460622AA
:102580003248FFF77FFA0228F8D038E0FFF7AEFABA
:10259000EEE72D4C405C42347E280CD0012000EB4D
:1025A000400004EB4004214606222848FFF76AFA5F
:1025B0000228F8D023E0FFF7D5FCE0700321601C6F
:1025C000FDF7D3FD010A217160711F4906224231D6
:1025D0001E48FFF757FA0228F7D010E01A4C435C68
:1025E0002A347E2B0DD0022000EB400004EB400487
:1025F000214606221548FFF745FA0228F8D00120A7
:1026000010BDFFF76BFC01280BD000EB400004EB82
:102610004004214606220D48FFF734FA0228F8D07C
:10262000EDE7094906222A310848FFF72BFA02286C
:10263000F7D00A20FDF78FFF0622A11D0348FFF700
:1026400021FA0228F8D0DAE752000020C800002062
:102650002DE9F047DFF8548000248246254698F89B
:10266000027008F1060913E009EB040199F8000073
:1026700011F8016CA919081AC5B221460C48FFF7D8
:1026800027FF012804D1324629465046FFF74CFF68
:102690002046641CE4B2B842E6D3002188F8021058
:1026A00088F800100120BDE8F08700001800002025
:1026B000CC0100200148FFF797B80000C8000020B7
:1026C00070B50024054622462046124B04E09E5C6D
:1026D000521C3044C0B2D2B28A42F8D31A78801A5F
:1026E000C2B25818012910F8010C09D109490C3956
:1026F0004978884204D02846FDF737FD022404E0DB
:102700002A4401461046FDF730FD00B90124204659
:1027100070BD00002400002010B543185B78132B17
:102720001AD01E2B52D0422B02D0442B5FD128E06E
:10273000435C7E2B0DD002203E4900EB400001EBB4
:102740004004214606223C48FFF79CF90228F8D0B5
:102750004DE0FFF717FAEFE7435C7E2B0ED0022027
:10276000344900EB4000183101EB400421460622B9
:102770003148FFF787F90228F8D038E0FFF7B6F9BB
:10278000EEE72C4C405C42347E280CD0012000EB5C
:10279000400004EB4004214606222748FFF772F967
:1027A0000228F8D023E0FFF7DDFBE0700321601C76
:1027B000FDF7DBFC010A217160711E4906224231DE
:1027C0001D48FFF75FF90228F7D010E0194C435C71
:1027D0002A347E2B0DD0022000EB400004EB400495
:1027E000214606221448FFF74DF90228F8D00120AF
:1027F00010BDFFF773FB01280BD000EB400004EB8A
:102800004004214606220C48FFF73CF90228F8D084
:10281000EDE7084906222A310748FFF733F9022875
:10282000F7D00622A11D0448FFF72CF90228F8D0A2
:10283000DDE7000052000020080100202DE9F047EC
:10284000DFF8548000248246254698F8037008F18A
:102850000C0913E009EB040199F8000011F8016C70
:10286000A919081AC5B221460C48FFF729FF01280B
:1028700004D1324629465046FFF74EFF2046641CDD
:10288000E4B2B842E6D3002188F8031088F80110BA
:102890000120BDE8F0870000180000203002002071
:1028A0000148FEF7A1BF000008010020FEE702E09A
:1028B00008C8121F08C1002AFAD1704770470020CB
:1028C00001E001C1121F002AFBD170471CB556A0C0
:1028D0000027D0E90010CDE90010B8463E46FEF7CB
:1028E00001F8FFF736FCFFF7D9F9FFF75BFAFFF7BE
:1028F0009FFAFFF7B1FAFFF777FAFFF747FAFFF70A
:1029000089F94B48FEF708FE14224A494A48FFF766
:102910005FF8142249494A48FFF75AF806226946E7
:102920004848FDF7C3FDDFF820A1DFF820B1DFF84C
:102930002091484C0025607948B16571FFF7C2FBD2
:10294000012810D098B1032801D04FF001089AF85F
:102950000010012901D0217889B18AF80050257032
:10296000FDF782FC12E03C48FFF768FFEFE7062224
:102970003A493348FFF786F80228F8D0E7E79BF892
:10298000001019B18BF80050FDF712FCFFF778FA30
:10299000A07838B1A570FFF7E7FA810701D5C00725
:1029A0000ED000272079C0B1142222492448FFF715
:1029B00069F82571FFF72AFB012803D030B10CE03C
:1029C0000127EFE72648FFF743FE06E006222349EA
:1029D0001948FFF757F80228F8D060780028AAD0E5
:1029E0004FF400614846FDF766FF012F01D1761CC8
:1029F000F6B2012E06D12FB1012202211948FDF7AE
:102A00005EFF07E0002202211648FDF758FF042E62
:102A100000D90026B8F1010F04D14FF48051484687
:102A2000FDF749FF657086E7736374740106000063
:102A3000480100202A000020C80000203E0000209D
:102A400008010020005000080F00002010000020A6
:102A5000000801400800002030020020A0000020F3
:102A6000CC0100200010014000000000010203041E
:102A700001020304060708093000000000004C11A1
:102A80002233445566770000A82A00080000002081
:102A9000A8000000AE280008502B0008A800002065
:102AA000F0050000BE2800080000000000A24A0453
:102AB0000000000000000000000073637474010651
:102AC0000000000000000000000000000000000006
:102AD0000000A1A2A3A000FF000000000000000071
:102AE000000000000000B1B2B3B000FF0000000021
:102AF00000000000000000000000807E4252A0851F
:102B0000807E4292A0D5807E42D2A125807E42F274
:102B1000A0FD807E13135D25807E13935C85807EEF
:102B200013D35D75807E1E1E9870807E1E5E998018
:102B3000807E1E9E99D0807E1EDE9820807E44007E
:102B40000000807E44FF6298AA240001FF0000007C
:04000005080000ED02
:00000001FF
